:03000000020B31BF
:0C0B3100787FE4F6D8FD75811B020800F7
:100A1600496E697469616C6973696E670020204963
:100A26006E76616C696420446174612020004875AB
:100A36006D69646974793D00202054656D702E20BF
:020A46003D0071
:0C09DC00120A4F7F2E120A797F327E0033
:1009E800E4F513F514C3E5149FE5139E501FE4F5D1
:1009F80015F5160516E51670020515B4E8F5E515A2
:0E0A0800B403F00514E51470DC051380D82249
:100B0B00758901758CB8758A0CD28C308DFDC28CB1
:030B1B00C28D2266
:100B1E00758901758CFF758AE4D28C308DFDC28C7F
:030B2E00C28D2253
:070A48007F01120A4F7F80BD
:020A4F00AD07F1
:100A5100ED54F0F5A0C2A0C2A1D2A27F017E001286
:100A610009E8C2A2EDC454F0F5A0C2A0C2A1D2A26D
:070A71007F011209E8C2A297
:010A7800225B
:020A7900AD07C7
:100A7B00ED54F0F5A0D2A0C2A1D2A27F017E00124C
:100A8B0009E8C2A2EDC454F0F5A0D2A0C2A1D2A233
:070A9B007F011209E8C2A26D
:010AA2002231
:100ACD008B198A1A891BAB19AA1AA91B120938602E
:100ADD0013051BE51B7002051A14F9120938FF12D4
:050AED000A7980E222FD
:100AF2007F33120A4F7F32120A4F7F28120A4F7F2A
:090B020006120A4F7F0C020A4F93
:080B4700C297120B0BD297229A
:0A0B3D002097FD3097FD2097FD2260
:100AA300E4FFFEFDFC3097FD120B1EEF25E0FFEE89
:100AB30033FE309706EF4401FF80002097FD0DBD04
:090AC30000010CED64084C70DC2C
:010ACC002207
:10080000120AF2120A487BFF7A0A7916120ACD7F81
:100810008C1209DC7F8D1209DC7F8E1209DC7F8F40
:100820001209DC7F01120A4F120AF2120B47120B57
:100830003D120AA38E118F12120AA38E0D8F0E1273
:100840000AA38E0F8F10120AA38E0B8F0C120AA30D
:100850008E088F09E512250EFFE511350DFEE51016
:100860002FFFE50F3EFEE50C2FFFE50B3EFEEF658B
:10087000097003EE650860167F80120A4F7BFF7ACD
:100880000A7923120ACD7F01120A4F02092E120A99
:10089000487BFF7A0A7934120ACDAE11AF127C0080
:1008A0007D0A120951EF2430FFE43EAB07FAAE1186
:1008B000AF127C007D0A120951ED2430FF8F827F38
:1008C00089120A4FAF03120A797F8A120A4FAF8248
:1008D000120A797F8B120A4F7F25120A797FC01284
:1008E0000A4F7BFF7A0A793E120ACDAE0FAF107C19
:1008F000007D0A120951EF2430FFE43EAB07FAAE47
:100900000FAF107C007D0A120951ED2430FF8F8259
:100910007FC9120A4FAF03120A797FCA120A4FAF7A
:1009200082120A797FCB120A4F7F43120A797FE83D
:080930007E031209E802082809
:10093800BB010689828A83E0225002E722BBFE02BD
:09094800E32289828A83E49322F0
:10095100C2D5EC30E709B2D5E4C39DFDE49CFCEEC1
:1009610030E715B2D5E4C39FFFE49EFE120987C3A9
:10097100E49DFDE49CFC800312098730D507C3E4A4
:060981009FFFE49EFE2230
:10098700BC000BBE0029EF8DF084FFADF022E4CC54
:10099700F875F008EF2FFFEE33FEEC33FCEE9DEC1D
:1009A700984005FCEE9DFE0FD5F0E9E4CEFD22ED63
:1009B700F8F5F0EE8420D21CFEADF075F008EF2FAD
:1009C700FFED33FD4007985006D5F0F222C398FD9E
:0509D7000FD5F0EA223B
:00000001FF
